:02000000E12BF2
:10000800FF00030E830103179E000A089D008A0162
:1000180070080313A0000B1C2E28B701B801061E98
:100028001B280130AF000030B0000B106128861E7D
:1000380023280130A5000030A6000B106128061FF8
:100048002C2801308316D8000030D9000B10612805
:100058000B1061280B1D61280B118312EC0A031980
:10006800ED0A83166F0883126F06031D3E286E087B
:1000780083166E06031D4D28831600306D06031D7A
:10008800472800306C06031D4D280130A0000030C1
:10009800A100003083126D06031D54281E306C0623
:1000A800031D60288316EC0A0319ED0A0130831238
:1000B8008606EC01ED016128612883122008F00012
:1000C80003171D088A001E0E8300FF0E7F0E09000D
:0600D8000000000008001A
:0E00DE00213083120313FD00FD0B7328080070
:1000EC000F3083120313FC004730FD00FD0B7C28FE
:0A00FC00FC0B7C2800000000080047
:1001060083120317B71B8A28031387128C2803133D
:1001160087160317371B9228031307129428031315
:1001260007160317B71A9A28031387119C28031377
:1001360087150317371AA22803130711A4280313D8
:10014600071503171C18AA2803130714AC28031352
:10015600071087146C2087100317B719B5280313E7
:100166008712B7280313871603173719BD280313F9
:100176000712BF28031307160317B718C52803135A
:100186008711C7280313871503173718CD280313BC
:100196000711CF280313071503171C18D5280313B7
:1001A6000714D7280313071087146C20871003172A
:0C01B6001C1CDF287620E0286F200800C9
:1001C200831203171C103608B700832003171C1470
:0201D200080023
:1001D40083120313F8010830FC00700DF80D740845
:1001E400F8020318F728F8070310F00DFC0BEF28AA
:0201F400080001
:0E01F6008312031720088A001F0882000800E9
:1002040083120317B401033034020318102934088D
:100214003307840020308000B40A052934083307EA
:1002240084008001B40334083307B5000A30F400B5
:100234003208F000EA207808F0003030F0070317A5
:1002440035088400700880000A30F4003208F00099
:10025400EA2070080317B2007008003A031D33291E
:080264003529B4031529080037
:10026C0083120313FB01FA01F9018030F800F10C41
:10027C00F00C031C4A297408F90775080318750F4C
:10028C00FA070318FB0A0310F01F52297408FA0727
:10029C0075080318750FFB07FB0CFA0CF90CF80C1E
:1002AC00031C3D297B08F3007A08F2007908F10061
:0602BC007808F0000800C4
:1002C2007329803083120317B2008629C030B2002E
:1002D20086299430B2008629D430B2008629803033
:1002E200B2008629831203173208013A03196229E0
:1002F2003208023A031967293208033A03196A29B4
:100302003208043A03196D2970293303F0003208C8
:10031200F0077008B2007008B700832003171C10A2
:10032200B50135083407840000080319A0293508EF
:10033200340784000008B600E120B50A92291C1493
:020342000800B1
:10034400831203173208F2007208F100F20A33082C
:10035400F000B30A700884000008F00071088400FB
:10036400700880007108840000080319BA29A629BE
:060374003208F000080051
:10037A00831203173208393C031CCA29303032026F
:0E038A00031CCA290130F000CB29F001080045
:10039800DE29803083120317B200F129C030B20081
:1003A800F1299430B200F129D430B200F12980301B
:1003B800B200F129831203173208013A0319CD2933
:1003C8003208023A0319D2293208033A0319D52907
:1003D8003208043A0319D829DB293303F00032081C
:1003E800F0077008B2001C147008B70083200317C8
:0E03F8001C103408B700832003171C140800E3
:10040600831203173208F2007208840000080319E9
:100416000E2AF20A072A7208F100F20A3308F000DF
:10042600B30A700884000008F000710884007008A0
:1004360080007108840000080319222A0E2A320857
:04044600F0000800BA
:10044A00013083120317AC000030AD0003172C08EB
:10045A002D040319DF2A03130814081E3D2A33301A
:10046A000317B600E1202B08B2001030B3000322B4
:10047A000313881E492A36300317B600E1202B08D9
:10048A00B200EA30B30003220313081F552A393099
:10049A000317B600E1202B08B2003F30B300032255
:1004AA000313881F602AC10A0319C20A0317AC0181
:1004BA00AD010313880188018814081E6D2A3230A1
:1004CA000317B600E1202B08B2003D30B300032227
:1004DA000313881E792A35300317B600E1202B084A
:1004EA00B2003930B30003220313081F852A3830BB
:1004FA000317B600E1202B08B2003B30B3000322F9
:10050A000313881F912A30300317B600E1202B0805
:10051A00B2004930B3000322031388010815081EEC
:10052A009F2A31300317B600E1202B08B2004B3066
:10053A00B30003220313881EAB2A34300317B60014
:10054A00E1202B08B2004730B30003220313081F2F
:10055A00B72A37300317B600E1202B08B200433020
:10056A00B30003220313881FD02AC101C201C501A7
:10057A00C601A301A40101300317B7008320173075
:10058A000317B2002230B300A2211230B200213088
:10059A00B300A221DF2A031388010330FB000830CD
:1005AA00FC007730FD00FD0BD82AFC0BD82AFB0B88
:0605BA00D82A2B2A0800DC
:1005C0000030831603136D06031DE82A3C306C06C9
:1005D000031DEF2AEE0A0319EF0AEC01ED016C0886
:1005E00083120317B2002130B300022183160313D4
:1005F0006E0883120317B2002630B30002210230C6
:10060000B2000430B3002630B40061210230B200E1
:100610000830B3003A30B400CC210230B2000930C7
:0A062000B3002130B400612108008E
:10062A00831203172B0884000008AC00AD010030C8
:10063A00AD0000302D06031D242B20302C06031993
:10064A002F2B00302D06031D2C2B09302C060319E5
:10065A002F2B312BAB0A152BAE01AF01B001B10123
:10066A0000302D06031D3B2B2D302C06031D422B7B
:10067A00B00A0319B10AAB0A4B2B00302D06031D31
:10068A00482B2B302C06031D4B2BAB0A2B0884005E
:10069A000008AC00AD010030AD002C08B200BD214D
:1006AA0070080319742B2E08F0002F08F1000A3085
:1006BA00F4000030F5003621303003172C02F20026
:1006CA000030031C013E2D02F30072087007AE00D1
:1006DA0071080318013E7307AF00AB0A4B2B3008B1
:1006EA0031040319812B2E08003CF0002F08031C4B
:1006FA00013EF101F102852B2E08F0002F08F100CE
:02070A000800E5
:10070C00831603138710071007118711071287121E
:10071C008312871007108712071287110711762092
:10072C00762076208715071587146C208710762085
:10073C0087146C208710762087146C208710762005
:10074C00071187146C208710762087146C20871073
:10075C008711871687146C2087107620871207154F
:10076C0087146C208710071187146C208710762053
:10077C0087146C208710071587146C20871076203F
:10078C00071187146C208710871607168715071515
:0E079C0087146C208710762003171C140800A9
:1007AA00FB208A110A128000840A9F0A0319A00AF0
:0807BA00F003031DD52B08001C
:1007C20044268B178B168B15831603138111011484
:1007D2000118ED2B8110EE2B81148118F22B0111DF
:1007E200F32B011581170117811206309F00FF308C
:1007F2008600FF308500831285018601F030831662
:1008020088008312880186230130B2000130B300D0
:100812003130B40061210C30B700832083123708D5
:1008220038040319152CE02203132F083004031D8A
:100832001F2C25082604031D1F2CE72C013003174B
:10084200B700832001300317B2000130B300273014
:10085200B400612103132F08300403193B2C02302A
:100862000317B2000130B3004D30B400612103130D
:10087200AF01B0012508260403194A2C02300317E0
:10088200B2000130B300C630B40061210313A501E8
:10089200A6011530FB004B30FC00BE30FD00FD0B05
:1008A200502CFC0B502CFB0B502C0000003042064D
:1008B200031D5D2C00304106031D722C013003170D
:1008C200B700832001300317B2000130B300CF30EC
:1008D200B4006121C030B700832017300317AB008A
:1008E20025220030831203134206031D7A2C0130A5
:1008F2004106031D8F2C01300317B70083200130FE
:100902000317B2000130B300BD30B4006121C03022
:10091200B700832012300317AB0025220030831268
:1009220003134206031D972C02304106031DD62CE9
:10093200C101C20101300317B70083200130031740
:10094200B2000230B300AB30B40061210230B20019
:100952000230B3001730B40061210230B20005301A
:10096200B300B630B40061210230B2000D30B300E2
:100972001230B40061211730B200E830B300A22176
:100982001230B200E930B300A2211530FB004B3027
:10099200FC00BE30FD00FD0BCC2CFC0BCC2CFB0B69
:1009A200CC2C00000313C501C60101300317B700A8
:1009B200832001300317B2000130B300E230B400EB
:1009C200612101300313B7000030B80083165808C4
:1009D20059040319722DD801D9010130831203176A
:1009E200B700832001300317B2000130B300DA30C0
:1009F200B40061211530FB004B30FC00BE30FD001D
:100A0200FD0B012DFC0B012DFB0B012D0000003015
:100A120003134206031D0F2D00304106031D242D32
:100A220001300317B700832001300317B2000130F1
:100A3200B3005F30B4006121C030B70083201730AB
:100A42000317AB0025220030831203134206031D55
:100A52002C2D01304106031D612DC101C20101305F
:100A62000317B700832001300317B2000230B3002E
:100A72006730B40061210230B2000230B300173097
:100A8200B40061211730AB00152370080313DD0099
:100A92007108DE0017300317B2005630B300A221EE
:100AA2001530FB004B30FC00BE30FD00FD0B572D16
:100AB200FC0B572DFB0B572D00000313C501C6017C
:100AC20001300317B700832001300317B200013051
:100AD200B3005730B400612101300313B700003076
:100AE200B800003083162106031D792D013020063F
:100AF200031D9C2DA001A101013083120317B70031
:100B0200832001300317B2000130B300A230B400D9
:100B120061213330FB00BB30FC00DF30FD00FD0BF8
:100B2200902DFC0B902DFB0B902D0000000001304E
:0A0B3200B70083209D2D0F2C9D2D90
:100C8800213084004F3083120313F000F330031730
:100C98009F000530A000D523A03084005030831277
:100CA800F000A33003179F000530A000D5231030B3
:100CB8008317840002308312F000423003179F002C
:0A0CC8000630A000D52383130800B6
:040B46000034003443
:100B4A004D3469342034743465346D3470347334FC
:020B5A00003465
:100B5C004334683461346E34673465346D346534D1
:060B6C006E347434003405
:0E0B72003C342D342D342D342D343E340034DB
:100B80004A346F34753465347534723420343234F9
:020B900000342F
:100B920045347134753469347034653420344234E8
:020BA20000341D
:100BA4004A346F34753465347534723420343134D6
:020BB40000340B
:040BB60000340034D3
:100BBA00543465346D347034733420342B34003437
:0C0BCA00543465346D34703473340034DE
:020BD6000034E9
:020BD8000034E7
:040BDA003634003479
:040BDE0000340034AB
:040BE200093400349E
:020BE6000034D9
:020BE8000034D7
:040BEA00003400349F
:040BEE00003400349B
:100BF200443465346D3461346E34643465340034A5
:040C02000034003486
:0C0C0600543465346D34703473340034A1
:040C12000134003475
:040C1600353400343D
:040C1A003834003436
:040C1E003234003438
:040C2200393400342D
:040C26000034003462
:040C2A003734003427
:040C2E00003400345A
:040C32003434003422
:040C36003034003422
:040C3A00313400341D
:100C3E00453471347534693470346534203441343C
:020C4E00003470
:020C500000346E
:0C0C5200543465346D3470347334003455
:040C5E00FB34FF3430
:100C620041346A346F347534743465347234003408
:0A0C720050346C34753473340034D0
:040C7C00003400340C
:040C80000A340034FE
:040C840033340034D1
:02400E007A3BFB
:00000001FF
